:020000020000FC
:1000000019C018951895189518951895189518955C
:10001000189518951895ADC01895189518951895B8
:100020001895189518951895189518951895189568
:10003000189518950FEF0DBF04E00EBF00917A00E0
:100040000F7700937A000091300000680F7B0093D7
:10005000300000916000077B0093600001E0009396
:10006000640002E10AB900270BB905E007B90FEFF8
:1000700008B900270093800009E00093810002E0A6
:10008000009389000BE70093880002E000936F0063
:1000900003EC0093C20008E00093C1000027009326
:1000A000C5000093C400F5E0E2E22F01EE2478944D
:1000B00037D02FE05AD022E036E044D020E034E1BF
:1000C0004AD023E036E03ED024E13DE336D02FE0B5
:1000D0004CD026E036E036D024E134E13CD02FE0AD
:1000E00044D029E036E02ED028E234E134D02FE0AD
:1000F0003CD02CE038E026D02CE330E12CD02FE0AF
:1001000034D02EE038E01ED02CE430E124D02FE0B3
:100110002CD022E131E016D02CE53BE21CD0FFCF01
:10012000B1E0A0E0442728E130E24D933A95E9F7A9
:100130002A95D1F7B1E0A0E0089530523D932A9579
:10014000E9F70895B1E0A0E040E2429F030E1E1CD3
:10015000A00DB11D0895FCE0E4EFE20FFE1D4591F6
:1001600040524D933A95D9F7089566276217F1F7F3
:1001700008950091840000FF019F4298AFB64F019F
:100180003E01F20115911F3F31F000000000000018
:100190000000000004C0F5E0E2E21591539517FD60
:1001A000409817FF409AF5902F01563019F4639547
:1001B000552703C000000000000000000000000000
:1001C000000000000000000000000000000000002F
:1001D000000000000000000000000000000000001F
:1001E000000000000000000000000000000000000F
:1001F000000000000000000000000000429A16FD10
:1002000018951F7100E2109FC0E0D1E0C00DD11D14
:1002100000000000000000000000F9E0EEE319918A
:100220000AE0109FE00DF11DEF0DFE1D04910093FB
:10023000C600F9E0EEE319910AE0109FE00DF11D10
:10024000EF0DFE1D04910093C600F9E0EEE3199155
:100250000AE0109FE00DF11DEF0DFE1D04910093CB
:10026000C600F9E0EEE319910AE0109FE00DF11DE0
:10027000EF0DFE1D04910093C600F9E0EEE3199125
:100280000AE0109FE00DF11DEF0DFE1D049100939B
:10029000C600F9E0EEE319910AE0109FE00DF11DB0
:1002A000EF0DFE1D04910093C600F9E0EEE31991F5
:1002B0000AE0109FE00DF11DEF0DFE1D049100936B
:1002C000C600F9E0EEE319910AE0109FE00DF11D80
:1002D000EF0DFE1D04910093C600F9E0EEE31991C5
:1002E0000AE0109FE00DF11DEF0DFE1D049100933B
:1002F000C600F9E0EEE319910AE0109FE00DF11D50
:10030000EF0DFE1D04910093C600F9E0EEE3199194
:100310000AE0109FE00DF11DEF0DFE1D049100930A
:10032000C600F9E0EEE319910AE0109FE00DF11D1F
:10033000EF0DFE1D04910093C600F9E0EEE3199164
:100340000AE0109FE00DF11DEF0DFE1D04910093DA
:10035000C600F9E0EEE319910AE0109FE00DF11DEF
:10036000EF0DFE1D04910093C600F9E0EEE3199134
:100370000AE0109FE00DF11DEF0DFE1D04910093AA
:10038000C600F9E0EEE319910AE0109FE00DF11DBF
:10039000EF0DFE1D04910093C600F9E0EEE3199104
:1003A0000AE0109FE00DF11DEF0DFE1D049100937A
:1003B000C600F9E0EEE319910AE0109FE00DF11D8F
:1003C000EF0DFE1D04910093C600F9E0EEE31991D4
:1003D0000AE0109FE00DF11DEF0DFE1D049100934A
:1003E000C600F9E0EEE319910AE0109FE00DF11D5F
:1003F000EF0DFE1D04910093C600F9E0EEE31991A4
:100400000AE0109FE00DF11DEF0DFE1D0491009319
:10041000C600F9E0EEE319910AE0109FE00DF11D2E
:10042000EF0DFE1D04910093C600F9E0EEE3199173
:100430000AE0109FE00DF11DEF0DFE1D04910093E9
:10044000C600F9E0EEE319910AE0109FE00DF11DFE
:10045000EF0DFE1D04910093C600F9E0EEE3199143
:100460000AE0109FE00DF11DEF0DFE1D04910093B9
:10047000C600F9E0EEE319910AE0109FE00DF11DCE
:10048000EF0DFE1D04910093C600F9E0EEE3199113
:100490000AE0109FE00DF11DEF0DFE1D0491009389
:1004A000C600F9E0EEE319910AE0109FE00DF11D9E
:1004B000EF0DFE1D04910093C600F9E0EEE31991E3
:1004C0000AE0109FE00DF11DEF0DFE1D0491009359
:1004D000C600F9E0EEE319910AE0109FE00DF11D6E
:1004E000EF0DFE1D04910093C600F9E0EEE31991B3
:1004F0000AE0109FE00DF11DEF0DFE1D0491009329
:10050000C600F9E0EEE319910AE0109FE00DF11D3D
:10051000EF0DFE1D04910093C600F401E301AFBE90
:100520001895C000C000400040004000400040005E
:1005300040004000400040004000400040004000BB
:1005400040004000400040004000400040004000AB
:10055000400040004000400040004000400040009B
:100560004000400040004000000000000001000189
:10057000000200020003000300040004000500055F
:10058000000600060007000700080008000900092F
:100590000100010001010101010201020103010347
:1005A0000104010401050105010601060107010717
:1005B000010801080109010902000200020102010B
:1005C00002020202020302030204020402050205FF
:1005D00002060206020702070208020802090209CF
:1005E00003000300030103010302030203030303E7
:1005F00003040304030503050306030603070307B7
:1006000003080308030903090400040004010401AA
:10061000040204020403040304040404040504059E
:10062000040604060407040704080408040904096E
:100630000500050005010501050205020503050386
:100640000504050405050505050605060507050756
:10065000050805080509050906000600060106014A
:10066000060206020603060306040604060506053E
:10067000060606060607060706080608060906090E
:100680000700070007010701070207020703070326
:1006900007040704070507050706070607070707F6
:1006A00007080708070907090800080008010801EA
:1006B00008020802080308030804080408050805DE
:1006C00008060806080708070808080808090809AE
:1006D00009000900090109010902090209030903C6
:1006E0000904090409050905090609060907090796
:1006F00009080908090909090A000A000A010A018A
:100700000A020A020A030A030A040A040A050A057D
:100710000A060A060A070A070A080A080A090A094D
:100720000B000B000B010B010B020B020B030B0365
:100730000B040B040B050B050B060B060B070B0735
:100740000B080B080B090B090C000C000C010C0129
:100750000C020C020C030C030C040C040C050C051D
:100760000C060C060C070C070C080C080C090C09ED
:100770000D000D000D010D010D020D020D030D0305
:100780000D040D040D050D050D060D060D070D07D5
:100790000D080D080D090D090E000E000E010E01C9
:1007A0000E020E020E030E030E040E040E050E05BD
:1007B0000E060E060E070E070E080E080E090E098D
:1007C0000F000F000F010F010F020F020F030F03A5
:1007D0000F040F040F050F050F060F060F070F0775
:1007E0000F080F080F090F09100010001001100169
:1007F000100210021003100310041004100510055D
:10080000100610061007100710081008100910092C
:100810001100110011011101110211021103110344
:100820001104110411051105110611061107110714
:100830001108110811091109120012001201120108
:1008400012021202120312031204120412051205FC
:1008500012061206120712071208120812091209CC
:1008600013001300130113011302130213031303E4
:1008700013041304130513051306130613071307B4
:1008800013081308130913091400140014011401A8
:10089000140214021403140314041404140514059C
:1008A000140614061407140714081408140914096C
:1008B0001500150015011501150215021503150384
:1008C0001504150415051505150615061507150754
:1008D0001508150815091509160016001601160148
:1008E000160216021603160316041604160516053C
:1008F000160616061607160716081608160916090C
:100900001700170017011701170217021703170323
:1009100017041704170517051706170617071707F3
:100920001708170817091709400040004000400049
:10093000400040004000400040004000FF00000038
:1009400000000000000000000000404040400000A7
:10095000400000282828000000000000000028288F
:100960007C287C28280000001038503814143810D7
:1009700000000044081020440000000030484830C7
:100980005448340000202020000000000000000433
:10099000080808080808080400201010101010109B
:1009A00010200000000028101028000000000000A7
:1009B000103810000000000000000000000040405F
:1009C00000000000003800000000000000000000EF
:1009D0000000400000060C0C1818303060000018B1
:1009E0002424342C242418000008180808080808B7
:1009F0001C0000182404040810203C0000182404E3
:100A000004080424180000040C14243C040404000A
:100A1000003820203804042418000018202038242E
:100A200024241800003804040408081010000018DA
:100A3000242418242424180000182424241C04042A
:100A4000180000000000004000004000000000000E
:100A5000004000004040000C1830606030180C006E
:100A6000000000003800380000000030180C0606B6
:100A70000C1830000030181818300030300000001A
:100A800038444C545C403800003C42427E42626232
:100A90006200007C42427C4262627C00003C424038
:100AA000404060623C00007C4242424262627C0004
:100AB000007E4040784060607E00007E404078408C
:100AC00060606000003C4240404662623C00004280
:100AD00042427E4262626200003C10101010181800
:100AE0003C00003C08080808181830000042424446
:100AF00078446262620000404040404060607E0096
:100B000000665A5A424262626200004262725A4E63
:100B100066626200003C4242424262623C00007CEB
:100B200042427C4060606000003C424242426A6453
:100B30003A00007C42427C4864626200003C4040D3
:100B40003C0606063C00007E101010101818180015
:100B500000424242424262623C0000424242424201
:100B6000662418000062626242425A5A66000042DD
:100B70004224181824424200004242241810181837
:100B80001800007E06060C1830607E00000C080875
:100B900008080808080C0060303018180C0C060013
:100BA00000301010101010101030002050500000B5
:100BB0000000000000000000000000007E00002097
:100BC00020100000000000000000000038043C4439
:100BD0003800000000404078444438000000000025
:100BE00038404040380000000004043C44443800D1
:100BF000000000003844784038000000001C20202D
:100C000078202000000000003844443C04380000F4
:100C100000404078444444000000001000101010D0
:100C20001000000000100010101020000000004014
:100C3000485060504800000000202020202018006C
:100C400000000000285444444400000000005824E0
:100C500024242400000000003844444438000000EC
:100C60000000384444784040000000003844443CD0
:100C700004040000000018202020200000000000D4
:100C80003C403804780000000020207820201C0020
:100C90000000000044444444380000000000444484
:100CA0004428100000000000444444542800000080
:100CB00000004428102844000000000044443C0484
:100CC0000438000000007C0810207C0000040808A4
:100CD0000810080808040000101010101010100070
:100CE00000201010100810101020000028500000E4
:100CF00000000000564741207369676E616C2067F1
:100D0000656E657261746F726D6F6E69746F72205B
:100D10007265733A203634307834383072617374C7
:100D2000657220207265733A20323536783234305D
:100D300064656C7461204861636B6572206D6167E6
:100D400053706972406C204576306C7574696F6EB3
:100D500074686520717569636B2062726F776E20AD
:100D6000666F78206A756D7073206F766572207477
:0C0D70006865206C617A7920646F67214F
:00000001FF
